:0C00000012C0FECFFDCFFCCFFBCFFACF2B
:10000C00F9CFF8CFF7CFF6CFF5CFF4CFF3CFF2CFC0
:10001C00F1CFF0CFEFCFEECFEDCFF894EE27ECBBD6
:10002C00F1E0FBBFEBBFE5BFF8E1F1BDE1BD8DE059
:10003C00A2E0BB27ED938A95E9F780E094E0A0E677
:10004C00ED930197E9F7EFE5EDBFE4E0EEBFC0E615
:10005C00D1E016C0B8D0BBD006C0B5D0BBD0BFD095
:10006C00B2D0E4E6F0E0FA93EA93D7D0B8D0089592
:10007C00AAD0ECE2F1E0B7D0C19AAC98AD98089553
:10008C00E0E0E8BBEFEFE7BBEFE0E5BBE0E7E4BBAC
:10009C00E0E0E2BBE1BBE3BFE2BFEFBDEEBDEDBD17
:1000AC00ECBDE7BDE6BDEBBDEABDE9BDE8BDE2BD1B
:1000BC00E5BDE4BDE3BDE5BFE9BFEAB9E0E8E8B9F9
:1000CC00E0E0E0BFE6B9EDB9E6BFAC98AD98C19AF7
:1000DC00C29A989961C0E0916001F0916101A8EE1B
:1000EC00B3E0B3D0BF01E0916201F0916301A4E6EB
:1000FC00B0E0ABD06E0F7F1FE0916401F091650111
:10010C00AAE0B0E0A2D0DB01AE0FBF1FE091660108
:10011C00F09167016BD03F01E0EFFCE0E615F705CD
:10012C00A9F59BDF8824992466247724AA24BB2470
:10013C00E4E0F0E0EA15FB0554F0F5015AD0AE0FFF
:10014C00BF1FE0E0F0E0ED93FC9358D0F1CFAD9AF7
:10015C00AC98AA24BB24E5E0F0E0AE16BF0634F45C
:10016C0036D041D0989BB1CF49D0F5CFAD98AC9853
:10017C00AA24BB24E2E0F0E0AE16BF0634F427D08C
:10018C0032D0989BA2CF3AD0F5CFE1CF71DF1FD000
:10019C002AD08824992499CF999905C0E1E0F0E000
:1001AC0031D033D092CF9A9905C0E2E0F0E02AD05A
:1001BC002CD08BCF9B9905C0E3E0F0E023D025D069
:1001CC0084CF83CFFFCFC198AC98AD9A0895E8EC5B
:1001DC00F0E00895E4E6F0E0FA93EA931EC0C19AC9
:1001EC00AC98AD98F7CFFA93EA9317C0EA0FFB1FC0
:1001FC000895A0E6B1E0EE0FFF1F0895F5013196CA
:10020C005F0108952F01F401F4CFF0DF4082518299
:10021C00F40131964F01AD9A1DCFE991F9913096C9
:10022C0039F088EB9BE00197F1F7A8953197C9F766
:10023C000895F195E195F0400895FA9FF02DEB9F0C
:10024C00F00DEA9FE02DF10D089504D0F6DF0EF4C9
:10025C00F0DF0895E894F7FF02C0EBDF6894B7FF76
:10026C0006C0A095B095119600F8039400FA089575
:00000001FF
